:020000040800F2
:100000004018002005010008610F0008850E000857
:100010005D0F0008BF060008371C00080000000044
:10002000000000000000000000000000B5140008FF
:10003000C3060008000000009D13000879160008A0
:100040001F0100081F0100081F0100081F01000810
:100050001F0100081F0100081F0100081F01000800
:100060001F0100081F0100081F0100081F010008F0
:100070001F0100081F0100081F0100081F010008E0
:100080001F0100081F0100081F0100081F010008D0
:100090001F0100081F0100081F0100084507000894
:1000A0001F0100081F0100081F0100081F010008B0
:1000B0001F0100081F0100081F0100081F010008A0
:1000C0001F0100081F0100081F0100081F01000890
:1000D0001F010008791A00081F0100081F0100080D
:1000E0001F0100081F0100081F010008DFF810D0E1
:1000F00000F01AFA0048004719250008AFF3008005
:10010000401800200648804706480047FEE7FEE703
:10011000FEE7FEE7FEE7FEE7FEE7FEE7FEE7FEE7B7
:100120007D160008ED00000830B50B4601460020A2
:100130002022012409E021FA02F59D4205D303FAA9
:1001400002F5491B04FA02F52844151EA2F101022A
:10015000F1DC30BD2DE9F05F0546002092469B465C
:1001600088460646814640241BE0284641464746CD
:10017000224600F0FAF953465A46C01A914110D36C
:1001800011461846224600F0E1F92D1A67EB0108E6
:100190004F4622460120002100F0D8F917EB000954
:1001A0004E41201EA4F10104DFDC484631462A46B8
:1001B0004346BDE8F09F2DE9FE4F804681EA0300EB
:1001C000C00F0C46009021F0004123F00045B8EB31
:1001D0000200A94105D24046214690461C460B46E6
:1001E000024623F00040104347D0270DC7F30A0012
:1001F000C3F30A510290401A019040286BDAC3F30E
:10020000130040F4801B0098924620B10023D2EBEB
:10021000030A63EB0B0B01985946C0F140025046AC
:1002200000F094F906460D4650465946019A00F0F2
:10023000ACF910EB08006141002487EA115284EA0E
:10024000E7731A4340D0009A62B3019A012A4FEA39
:10025000075215DC001B61EB02014FF0004202EA7D
:100260000752CDE90042001C41F5801132462B4671
:1002700000F0ACF903B0BDE8F08F40462146F9E745
:10028000001B61EB0201001C41F5801300185B416B
:100290002018A2F5001747EB030140EAD570B61904
:1002A0006D4111E06D084FEA360645EAC0754FEA28
:1002B0000752001B61EB0201001C41F58011490847
:1002C0004FEA30000019514132462B4603B0BDE8D9
:1002D000F04F00F06CB90098012240000023D0EBF1
:1002E000020263EBE073009821464FEAE074B8EB3A
:1002F000000061EB0401E9E783F000435BE781F074
:10030000004158E72DE9FE4F81EA030404F0004460
:1003100021F0004100944FF0000B23F0004350EA1D
:1003200001045ED052EA03045BD0C3F30A54C1F364
:100330000A552C44A4F2F3340194A0FB0254C1F3F7
:10034000130141F48011C3F3130343F4801301FB41
:10035000024400FB034E840A970A44EA815447EAA8
:100360008357A4FB076802958D0A05FB07854FEAB2
:10037000932C04FB0C542705029D4FEA065847EACC
:100380001637B5EB08056EEB070C870E920E47EAA1
:10039000811742EA8312A7FB0201B6EB0B0164EB63
:1003A00000042B0D43EA0C335E1844EB1C50DA4674
:1003B0005146E7FB0201C5F313044FEA0B3343EA4E
:1003C00014534FEA0432019C43EA0603A4F10C04DF
:1003D0000294009CCDE900B400F0F8F803B0BDE849
:1003E000F08F00200146F9E72DE9F04D81EA030482
:1003F00004F0004B21F0004514464FF0000A23F0B2
:10040000004150EA050220D054EA01021DD0C5F394
:100410000A570246C5F31303C1F31300C1F30A568A
:1004200040F4801543F48013A7EB0608101BD64652
:1004300008F2FD3873EB050002D308F1010801E072
:1004400092185B41B8F1000F03DA00200146BDE8C5
:10045000F08D00204FF48011064684460EE0171BF5
:1004600073EB050705D3121B63EB050306434CEA48
:10047000010C49084FEA300092185B4150EA01072D
:10048000EDD152EA030012D082EA040083EA0501AA
:10049000084305D0101BAB4106D20122002306E021
:1004A00000224FF0004302E06FF0010253101AEBFC
:1004B00006004CEB085110EB0A0041EB0B01BDE8C4
:1004C000F04D00F074B8C1F30A52C1F3130140F2C9
:1004D000FF3341F480119A4202DA0020014670474E
:1004E00040F233439A42A2F2334202DC524200F01D
:1004F0003CB800F02BB8000030B5041E71F10004C8
:1005000004DB4FF00044404264EB0101141E73F120
:10051000000405DB1C464FF00043524263EB04032A
:10052000994208BF904230BD064C074D06E0E06896
:1005300040F0010394E8070098471034AC42F6D32A
:10054000FFF7D8FD4429000864290008202A04DBAD
:10055000203A00FA02F1002070479140C2F12003D6
:1005600020FA03F3194390407047202A04DB203A15
:1005700021FA02F00021704721FA02F3D040C2F1C3
:1005800020029140084319467047202A06DBCB170A
:10059000203A41FA02F043EAE07306E041FA02F33E
:1005A000D040C2F12002914008431946704710B56F
:1005B000141E73F1000408DA401C41F10001921886
:1005C0005B411A4301D120F0010010BD2DE9F04D2F
:1005D00092469B4611B1B1FA81F202E0B0FA80F284
:1005E00020329046FFF7B2FF04460F4640EA0A0069
:1005F00041EA0B0153465A46084313D0114653EAC9
:10060000010019D0C8F140025046FFF7AEFF054681
:100610000E46504659464246FFF798FF084305D01C
:10062000012004E020463946BDE8F08D0020054356
:1006300046EAE0762C4337430A986305E40AA0EBC8
:1006400008000022FD0A44EA47540A3002D500207F
:100650000146E9E7010510196941DDE9084500197E
:100660006941BDE8F04DA2E770B58C1810F8015B48
:1006700015F0070301D110F8013B2A1106D110F83B
:10068000012B03E010F8016B01F8016B5B1EF9D13F
:100690002B0705D40023521E0DD401F8013BFAE7C5
:1006A00010F8013BCB1A921C03E013F8015B01F830
:1006B000015B521EF9D5A142D8D3002070BD00BF06
:1006C000FEE7704700B5034603E04FF47A7000F090
:1006D00005F8181EA3F10103F7D100BD00EBC0011E
:1006E000C9004FF0E02251610021916105211161A3
:1006F00000BF4FF0E021096901F480310029F8D0F2
:1007000004214FF0E02211617047000070B50546EA
:100710000948465D00240BE046FA04F000F00102AF
:10072000064830F81410064800F058F9601CC4B2AE
:10073000082CF1DB70BD0000140000201E0000201A
:10074000000801402DE9F04100240026002530E09A
:100750004FF480711B4800F036F9012829D100F0D0
:1007600093FB0446FA2C00DB24E0C82C03DBFA2CB4
:1007700001DA01260AE03C2C03DB5A2C01DA0127BE
:1007800004E00A2C02DB322C00DA0027012E0ED105
:100790000D48006840000C4908600846006838446D
:1007A0000860202D03DB01200849087002E0681C66
:1007B000C5B2CDE700BF4FF4807000F009F8BDE886
:1007C000F0810000000801403000002034000020CB
:1007D00001490860704700001404014000212349CA
:1007E0008279002A3AD00A46126803689A430B4677
:1007F0001A600A1D126803689A430B1D1A60027979
:1008000011440A6803681A430A60184A08321268D9
:1008100003689A43154B08331A601A1D126803685F
:100820009A43124B0C331A604279102A0ED11A1FC8
:10083000126803681A430D4B08331A601A1D1268B8
:1008400003681A43094B0C331A600DE007494279DB
:1008500011440A6803681A430A6005E002791144EA
:100860000A6803689A430A60704700000004014068
:1008700030B500228B071C0F0F2303FA04F20B4B39
:100880008C1053F824309343084C8D1044F82530D5
:1008900023468C1053F824308C07240F00FA04F4FC
:1008A0002343024C8D1044F8253030BD0800014030
:1008B0002DE9F041024600250026002000230024F7
:1008C000002791F803C00CF00F0591F803C00CF05D
:1008D000100CBCF1000F03D091F802C04CEA0505E2
:1008E00091F800C0BCF1000F31D0146800202BE05B
:1008F0004FF0010C0CFA00F3B1F800C00CEA03064B
:100900009E4220D183004FF00F0C0CFA03F7BC433A
:1009100005FA03FC4CEA040491F803C0BCF1280F6B
:1009200006D14FF0010C0CFA00FCC2F814C00AE02A
:1009300091F803C0BCF1480F05D14FF0010C0CFA3F
:1009400000FCC2F810C0401C0828D1D31460B1F8D4
:1009500000C0BCF1FF0F34DD546800202EE000F130
:10096000080C4FF0010808FA0CF3B1F800C00CEACB
:1009700003069E4221D183004FF00F0C0CFA03F7BF
:10098000BC4305FA03FC4CEA040491F803C0BCF133
:10099000280F05D100F1080C08FA0CF8C2F81480F1
:1009A00091F803C0BCF1480F07D100F1080C4FF0DB
:1009B000010808FA0CF8C2F81080401C0828CED3B1
:1009C0005460BDE8F0810246002093680B400BB1F3
:1009D000012000E000207047016170470AB1016109
:1009E00000E041617047000010B500200F49086029
:1009F0000F48006820F470400D4908600846006800
:100A000040F44050086000200A49C1F8AC010320BE
:100A1000FFF764FE0120054908600320FFF75EFE32
:100A200000200449C1F8A80110BD0000A88121429E
:100A3000040C01400080214210B500200F490860DD
:100A40000F48006820F470400D49086008460068AF
:100A500040F44050086001200A49C1F8AC0102206E
:100A6000FFF73CFE0120054908600220FFF736FE33
:100A700000200449C1F8A80110BD0000A88121424E
:100A8000040C01400080214270B50546002417483F
:100A9000006820F47040154908600846006840F47A
:100AA00000400860002616E000201149086004207C
:100AB000FFF714FE01200F49C1F8A8016006040EDB
:100AC0000B487C38006808B1601CC4B20420FFF7F2
:100AD00005FE701CC6B2082EE6DB15B9FFF7ACFFA9
:100AE00001E0FFF781FF204670BD0000040C0140CB
:100AF000A88121420080214270B504461848006850
:100B000020F47040164908600846006840F44050E0
:100B1000086000201349086000251EE0E00920B1AC
:100B200001201049091D086003E000200D49091D3E
:100B300008606006040E0520FFF7D0FD012009497A
:100B400008600520FFF7CAFD00200749C1F8A80189
:100B50000520FFF7C3FD681CC5B2082DDEDB70BDA4
:100B6000040C0140A88121420080214210B50F48A9
:100B7000006820F470400D4908600846006840F4A1
:100B80004050086001200A4908600A49C1F8A801DC
:100B90000420FFF7A3FD0020054908600420FFF7AB
:100BA0009DFD00200349C1F8A80110BD040C0140BF
:100BB000AC8121420080214210B50F48006820F42A
:100BC00070400D4908600846006840F440500860D5
:100BD00000200A4908600A49C1F8AC010420FFF767
:100BE0007DFD0120054908600549C1F8AC010420DC
:100BF000FFF774FD10BD0000040C0140A8812142E4
:100C00000080214210B500241548006820F470408F
:100C1000134908600846006840F40040086001205D
:100C2000104908600320FFF759FD01200E49C1F863
:100C3000A8010320FFF752FD07E0601CC4B2FA2CA4
:100C400003DDFFF7B9FF012010BD064880380068BA
:100C50000028F2D10349091F086000BFF4E7000033
:100C6000040C0140AC8121420080214270B5044651
:100C7000FFF77CFFE620FFF73FFFFFF7C3FF18B148
:100C8000FFF79AFF002070BD2046FFF735FFFFF702
:100C9000B9FFFFF76BFFE720FFF72EFFFFF7B2FF6B
:100CA0000020FFF7F1FE0546FFF786FF2846EAE73A
:100CB00070B506460C461546FFF758FFE620FFF7CD
:100CC0001BFFFFF79FFF18B1FFF776FF012070BDF4
:100CD0003046FFF711FFFFF795FFFFF747FFE720CB
:100CE000FFF70AFFFFF78EFF0DE0012C04D1002073
:100CF000FFF7CAFE287003E00120FFF7C5FE287049
:100D00006D1C601E84B2002CEFD1FFF755FF002050
:100D1000DDE710B5FFF72AFFE620FFF7EDFEFFF74E
:100D20004BFF10BD70B505460C46FFF71FFFE620D0
:100D3000FFF7E2FEFFF766FF18B1FFF73DFF012066
:100D400070BD2846FFF7D8FEFFF75CFF2046FFF78F
:100D5000D3FEFFF757FFFFF72FFF0020F0E700005B
:100D600008B50121082000F02BFB4FF44060ADF8DE
:100D7000000010208DF8030003208DF80200694662
:100D80000448FFF795FD4FF440610248FFF724FE49
:100D900008BD0000000C014008B50020009001F0E3
:100DA00013FD00240AE0324A02EB44025178304A33
:100DB00012F81400FFF7B6FF601CC4B21E2CF2D369
:100DC000002001F001FD00BF51E06A4602214320EE
:100DD000FFF76EFF0546002D46D19DF800009DF8F7
:100DE000011040EA0126002E3ED0012E06D0022E30
:100DF00011D0042E1CD0082E34D126E000F0F4F8D7
:100E00001C4800F0E9F90021462001F0A8FC002070
:100E1000FFF77CFC27E000F0E7F8174800F0DCF96A
:100E20000021462001F07CFC0120FFF76FFC1AE056
:100E300000F0DAF8114800F0CFF90021462001F067
:100E400023FC0220FFF762FC0DE000F0CDF80C4817
:100E500000F0C2F90021462001F029FC0320FFF731
:100E600055FC00E000BF00BF3220FFF72BFCACE7D1
:100E70000829000837000020370400203708002028
:100E8000370C002000BFFEE710B5002408E0601C0E
:100E9000C4B21420FFF722FCFA2C01DB204610BD5F
:100EA0004FF480710348FFF78EFD0128EFD02046F4
:100EB000F5E70000000801401FB50121052000F002
:100EC0007FFA4FF48070ADF80C0048208DF80F00C9
:100ED00003A91448FFF7ECFC08210020FFF7C8FC29
:100EE0004FF48070FFF774FC4FF480700190002085
:100EF0008DF808000C208DF8090001208DF80A00FB
:100F000001A8FFF76BFC17208DF8000000208DF87A
:100F1000010001208DF802008DF80300684600F002
:100F200021F81FBD0008014008B50121042000F090
:100F300047FA10208DF80300FF20ADF800000320D1
:100F40008DF8020069460448FFF7B2FCFF21024811
:100F5000FFF742FD08BD00000008014000BFFEE7AA
:100F60007047000070B5002100230F22C47804B33D
:100F7000154C246804F4E064C4F5E064210AC1F16E
:100F80000403CA40447804FA03F1847814402143EE
:100F900009010E4C0678A155047804F01F050124C0
:100FA000AC4005786D11AD0005F1E025C5F80041B4
:100FB00009E0047804F01F050124AC40044D0678D4
:100FC000761145F8264070BD0CED00E000E400E02D
:100FD00080E100E002490143024A116070470000CD
:100FE0000000FA050CED00E070B500240EE00021D1
:100FF000204600F0E0F8002504E0002000F013F99E
:10100000681CC5B2802DF8DB601CC4B2082CEEDB76
:1010100070BD000008B50121042000F0D1F91420B2
:101020008DF8030003208DF802001020ADF80000B9
:1010300069460A48FFF73CFC2020ADF800006946ED
:101040000648FFF735FC012210210448FFF7C6FCD3
:10105000012220210148FFF7C1FC08BD0008014022
:1010600070B50546002413E08020204100EA050207
:1010700020210E48FFF7B2FC012210210B48FFF798
:10108000ADFC002210210948FFF7A8FC601CC4B287
:10109000082CE9DB012210210448FFF79FFC002205
:1010A00010210248FFF79AFC70BD000000080140C3
:1010B00010B5012220210948FFF790FC01221021E0
:1010C0000648FFF78BFC002220210448FFF786FC2E
:1010D000002210210148FFF781FC10BD00080140EB
:1010E00010B5002220210748FFF778FC01221021CB
:1010F0000448FFF773FC012220210248FFF76EFC31
:1011000010BD00000008014070B5002406E0002575
:1011100000E06D1CB5F57A7FFBD3641CB4F57A7FD3
:10112000F5D3FFF777FFAE2000F06DF8D52000F083
:101130006AF8802000F067F8A82000F064F83F20EB
:1011400000F061F8D32000F05EF8002000F05BF8BA
:10115000402000F058F8A12000F055F8C82000F019
:1011600052F8DA2000F04FF8122000F04CF88120FD
:1011700000F049F8CF2000F046F8D92000F043F8FD
:10118000F12000F040F8DB2000F03DF8302000F0C6
:101190003AF8A42000F037F8A62000F034F88D20AB
:1011A00000F031F8142000F02EF8AF2000F02BF8FA
:1011B000FFF71AFF70BD70B505460C4645F0B0004C
:1011C00000F021F8102141EA141000F01CF804F09E
:1011D0000F0000F018F870BD70B5064600240FE04F
:1011E00000212046FFF7E7FFE50103E0705D00F016
:1011F0001AF86D1C601CC001A842F7D8601CC4B26C
:10120000082CEDDB70BD10B50446FFF751FF7820C8
:10121000FFF726FF0020FFF723FF2046FFF720FF00
:10122000FFF75EFF10BD10B50446FFF741FF7820C1
:10123000FFF716FF4020FFF713FF2046FFF710FFD0
:10124000FFF74EFF10BD000000B589B0012104205A
:1012500000F0A6F80121082000F0B2F84020ADF817
:10126000200018208DF8230003208DF8220008A903
:101270004848FFF71DFB8020ADF8200018208DF8AE
:10128000230003208DF8220008A94248FFF710FB35
:101290004FF48070ADF8200018208DF82300032053
:1012A0008DF8220008A93B48FFF702FB4FF40070BD
:1012B000ADF8200018208DF8230003208DF82200BF
:1012C00008A93448FFF7F4FA6320ADF8180023208A
:1012D000ADF814000020ADF81A00ADF8160005A90D
:1012E0002D4800F077FB6020ADF804000120ADF838
:1012F00006000020ADF80A00ADF80C0001A9264850
:1013000000F004FA6020ADF804000120ADF80600FA
:101310000020ADF80A00ADF80C0001A91E4800F04D
:101320004BFA6020ADF804000120ADF80600002063
:10133000ADF80A00ADF80C0001A9174800F09CFABE
:101340006020ADF804000120ADF806000020ADF8E3
:101350000A00ADF80C0001A90F4800F0E7FA0821D7
:101360000D4800F01FFA08210B4800F077FA082119
:10137000094800F0D1FA0821074800F015FB0121C7
:10138000054800F0ABF90121034800F0B3F909B0BA
:1013900000BD0000000C0140000800407047000044
:1013A00029B1064AD2690243044BDA6104E0034AD8
:1013B000D2698243014BDA6170470000001002409D
:1013C00029B1064A92690243044B9A6104E0034A38
:1013D00092698243014B9A617047000000100240FD
:1013E00030B500210022002400232D4D6D6805F04A
:1013F0000C0121B1042905D0082923D105E0294D8C
:10140000056022E0274D05601FE0254D6D6805F45D
:101410007012234D6D6805F48034022505EB92426D
:101420001CB9214D554305600BE01D4D6D6805F459
:1014300000351DB11C4D5543056002E0194D554363
:10144000056002E0174D056000BF00BF144D6D68D8
:1014500005F0F0010909154D6B5C0568DD4045603C
:101460000F4D6D6805F4E061090A104D6B5C45682D
:10147000DD4085600A4D6D6805F46051C90A0B4D69
:101480006B5C4568DD40C560054D6D6805F4404105
:10149000890B074D6B5CC568B5FBF3F5056130BD85
:1014A0000010024000127A0000093D0000000020F8
:1014B000100000207047000000B587B001218803AC
:1014C000FFF77EFF01210420FFF77AFF18208DF837
:1014D0001B004FF40070ADF8180003208DF81A00BF
:1014E00006A92148FFF7E4F948208DF81B004FF4C6
:1014F0008060ADF8180003208DF81A0006A91A487C
:10150000FFF7D6F94FF4165002900020ADF8140002
:101510000C20ADF812000020ADF81000ADF80E0060
:10152000ADF80C0002A9114800F010FB012240F2B6
:1015300025510E4800F0E4FA4FF4A060FFF74AFD91
:1015400025208DF8040001208DF807008DF8050096
:101550008DF8060001A8FFF705FD0121034800F002
:10156000B6FA07B000BD0000000801400038014095
:1015700010B504462146054800F059FB00BF802104
:10158000024800F0B0FA0028F9D010BD0038014040
:1015900010B500F001F810BD0CB5002001900090CE
:1015A0003348006840F480303149086000BF30485B
:1015B000006800F4003000900198401C01900098F1
:1015C00018B90198B0F5A06FF1D12948006800F46E
:1015D000003010B10120009001E000200090009840
:1015E000012843D12348006840F0100021490860D9
:1015F0000846006820F0030008600846006840F0D4
:10160000020008601A484068194948600846406866
:1016100048600846406840F480604860084640687A
:1016200020F47C1048600846406840F4E8104860A8
:101630000846006840F08070086000BF0C480068F1
:1016400000F000700028F9D00948406820F003003D
:10165000074948600846406840F00200486000BF03
:101660000348406800F00C000828F9D10CBD0000C8
:1016700000100240002002407047000010B51348DF
:10168000006840F0010011490860084640681049B0
:1016900008400E494860084600680E4908400B495A
:1016A00008600846006820F480200860084640680A
:1016B00020F4FE0048604FF41F008860FFF768FFC9
:1016C0004FF000600449086010BD000000100240A7
:1016D0000000FFF8FFFFF6FE08ED00E021B10288F0
:1016E00042F08002028004E002884FF67F731A40C5
:1016F0000280704721B1028842F00102028004E0BA
:1017000002884FF6FE731A400280704770B50024BD
:1017100000220023058C4FF6FE7635400584028CAE
:101720008388048B4FF68F752C40B51E2C400D8896
:101730002C43751E2A400D892A434D882A43144D97
:10174000A8420BD0134DA84208D0134DA84205D093
:10175000124DA84202D0124DA84213D14FF6F77590
:101760002A404D892A434FF6FB752A408D882A432B
:101770004FF6FF652B404FF6FF552B408D892B43CD
:10178000CD892B4383800483CD888586028470BDF8
:10179000002C014000340140004001400044014061
:1017A000004801400A460021018B4FF6F7731940AB
:1017B000114301837047000070B50024002200230C
:1017C000058C4FF6EF7635400584028C8388048BB8
:1017D00048F6FF752C404FF6FF452C400D884FF61C
:1017E000FF7606EA05252C434FF6DF752A400D8962
:1017F00006EA05152A434D8806EA05152A43154DC4
:10180000A84202D0144DA8421DD14FF67F752A4040
:101810004D894FF6FF7606EA05152A434FF6BF7548
:101820002A408D8806EA05152A434FF6FF352B40DE
:101830004FF2FF752B408D8906EA85052B43CD8934
:1018400006EA85052B4383800483CD8805870284BF
:1018500070BD0000002C0140003401400A46002108
:10186000018B4FF2FF7319404FF6FF7303EA022317
:10187000194301837047000070B500240022002343
:10188000058C4FF6FF6635400584028C8388848B77
:101890004FF68F752C404FF6FC752C400D882C436D
:1018A0004FF6FF552A400D894FF6FF7606EA0525CB
:1018B0002A434D8806EA05252A43154DA84202D041
:1018C000144DA8421DD14FF2FF752A404D894FF6A5
:1018D000FF7606EA05252A434FF6FF352A408D8814
:1018E00006EA05252A434EF6FF752B404DF6FF7597
:1018F0002B408D8906EA05152B43CD8906EA05158F
:101900002B4383808483CD888587028470BD00004B
:10191000002C0140003401400A460021818B4FF623
:10192000F7731940114381837047000070B500229E
:1019300000230024058C4EF6FF7635400584038C89
:101940008488828B48F6FF752A404FF6FF452A406F
:101950000D884FF6FF7606EA05252A434DF6FF75FA
:101960002B400D8906EA05352B434D8806EA0535DF
:101970002B430B4DA84202D00A4DA84208D14BF68A
:10198000FF752C408D894FF6FF7606EA85152C43AE
:1019900084808283CD88A0F84050038470BD00000D
:1019A000002C0140003401400A460021818B4FF297
:1019B000FF7319404FF6FF7303EA02231943818333
:1019C0007047818670470187704781877047A0F80C
:1019D00040107047002202881D4B98420ED01D4BCC
:1019E00098420BD0B0F1804F08D01B4B984205D0E5
:1019F0001A4B984202D01A4B984204D14FF68F737B
:101A00001A404B881A43174B984207D0164B9842FE
:101A100004D04FF6FF431A40CB881A4302808B88CC
:101A200083850B8803850A4B98420BD0094B98425B
:101A300008D00E4B984205D00D4B984202D00D4B6A
:101A4000984201D10B7A03860123838270470000FC
:101A5000002C014000340140000400400008004018
:101A6000000C004000100040001400400040014005
:101A7000004401400048014010B540F2255109489A
:101A800000F031F801280CD1064800F0CBF80649E7
:101A9000087001200549087040F22551014800F006
:101AA00007F810BD00380140350000203600002046
:101AB00010B50022002340F66A14A14200D100BFF5
:101AC0000A1201249440A3B2DC43048010BD21B16A
:101AD000828942F40052828104E082894DF6FF73CC
:101AE0001A408281704702460020B1F5007F00D184
:101AF00000BF13880B400BB1012000E000207047AD
:101B0000F0B50346002400260025002040F66A17A1
:101B1000B94200D100BF1846C1F3421401F01F06BC
:101B2000012707FA06F5012C01D10C3004E0022C44
:101B300001D1103000E014301AB107682F4307605C
:101B400002E00768AF430760F0BD00002DE9F047F1
:101B500086B005460E460024A24600BFA1460027D7
:101B6000B08900B100BF2F462C8A4CF6FF700440AC
:101B7000F08804432C82AC894EF6F3100440B08800
:101B800031890843718908430443AC81AC8A4FF61C
:101B9000FF400440B0890443AC8201A8FFF720FC59
:101BA0001F48874202D1DDF810A001E0DDF80CA04B
:101BB000A88900F4004040B10AEBCA0000EB0A100B
:101BC00031684900B0FBF1F807E00AEBCA0000EB0E
:101BD0000A1031688900B0FBF1F86420B8FBF0F01E
:101BE00004012009642101FB1089A88900F4004048
:101BF00040B1322000EBC900B0FBF1F000F007006B
:101C0000044308E0322000EB09106421B0FBF1F03E
:101C100000F00F0004432C8106B0BDE8F0870000FF
:101C20000038014001468888C0F308007047C1F3BE
:101C300008028280704700BFFEE700000FB4054B2A
:101C400010B503A9044A029800F0DAF810BC5DF858
:101C500014FB0000072500083814002002E008C823
:101C6000121F08C1002AFAD170477047002001E016
:101C700001C1121F002AFBD1704700002DE9FF5F50
:101C800082B00021DDE90430020DDDF840B00343ED
:101C900018D044F61050A2F2FF32424315141198A6
:101CA00001281FD0A5EB0B00401C5FEA000A4FF093
:101CB00000064E4FDFF83891B046504615D5CAF1B0
:101CC000000413E0119801244AA3012801D16FEA0E
:101CD0000B010298119AC0E90031C0E9024206B036
:101CE000BDE8F09FCBF10000DFE704460021404A49
:101CF000491842EB0450CDE9001012E0E00707D08C
:101D000032463B4640464946FEF7FCFA8046894645
:101D100032463B4610461946FEF7F4FA06460F4691
:101D20006410002CEAD1DDE90401DDE90023BAF1F9
:101D3000000F06DAFEF7E6FA42464B46FEF7E2FAF5
:101D400005E0FEF751FB42464B46FEF74DFB0446CD
:101D50000E460022284BFEF7CFFB03D84FF0FF3092
:101D6000014607E00022254B20463146FEF723FAC4
:101D7000FEF7A9FB102409E0002C0ADB0A2200234D
:101D8000FEF7E8F9039B30321A55641E50EA01024F
:101D9000F2D1641C039AC4F111031444119A012A6C
:101DA00003D0012208430DD10AE0084304D00020EB
:101DB0004FF0110B119072E7A3EB0B056D1E0DE0B8
:101DC0005B4504DD4FF0000205F1010504E003DA94
:101DD0004FF00002A5F10105002AECD002981199FC
:101DE000C0E90231C0E9004579E700000000144075
:101DF0000000F03F300000000000F0430000E03F32
:101E00002DE9FF4F95B09A46884606460025EEE13B
:101E1000252877D100242746F94A0121039400E0C0
:101E2000044316F8013F203B01FA03F01042F7D1BA
:101E300030782A2811D06FF02F033078A0F13002CB
:101E4000092A16D8039A44F0020402EB820203EB3B
:101E500042021044761C0390EFE758F8042B0392DB
:101E6000002A03DA504244F40054039044F0020480
:101E7000761C30782E2816D116F8010F44F0040491
:101E80002A280DD06FF02F023078A0F13003092BF3
:101E900009D807EB870302EB4303C718761CF3E767
:101EA00058F8047B761C30786C280FD006DC4C2860
:101EB00017D068280DD06A2814D104E0742810D0F7
:101EC0007A280FD10DE044F400140AE044F48014A1
:101ED00001E044F440147278824202D104F5801487
:101EE000761C761C307866280BD013DC582877D007
:101EF00009DC002875D04528F6D04628F4D04728BC
:101F00001AD193E118E0632835D0642879D0652888
:101F100012D18BE1702873D008DC6728F1D06928D2
:101F20006FD06E280DD06F2806D1ACE073282CD06E
:101F3000752874D0782853D05246179990476D1C55
:101F400054E1C4F30250022809D003280DD0D8F878
:101F5000001004280DD00D6008F1040846E1D8F8FF
:101F60000010EA17C1E90052F6E7D8F800100D801A
:101F7000F2E70D70F0E718F8041B8DF80010002050
:101F80008DF80100EB46012003E058F804BB4FF048
:101F9000FF3061074FF0000102D40DE009F10101AB
:101FA0008946B9420FDA8145F8DB1BF80910002990
:101FB000F4D108E009F1010189468142FADB1BF8FE
:101FC00009100029F6D103985346A0EB09072146D2
:101FD0003846179A00F080FA284400EB090507E01C
:101FE00044E008E10DE01BF8010B524617999047B9
:101FF000B9F10109F7D2534621463846179AF2E063
:1020000039E00A21C4F302524FF0000B0091022A7A
:1020100006D058F8040BC117032A09D00AE023E0C0
:1020200008F1070020F00702F2E80201904605E0FF
:1020300000B2C117042A01D140B2C117002906DA43
:102040000A460021404261EB02012D2202E02205F6
:1020500004D52B228DF80420012203E0E20701D0F1
:102060002022F7E7914657E00A2100E010214FF0C7
:10207000000B00910BE010214FF0000B44F0040422
:102080000827009103E008204FF0000B0090C4F3F4
:102090000252022A05D058F8040B0021032A08D066
:1020A00008E008F1070020F00702F2E8020190467C
:1020B00003E080B2042A00D1C0B24FF00009220729
:1020C0002AD53278702A07D0DDF800C08CF0100CC9
:1020D0005CEA0B0C05D00EE040228DF804200122B2
:1020E00008E050EA010306D030238DF804308DF863
:1020F000052002229146009B83F0080353EA0B035C
:102100000AD150EA010201D1620705D530228DF8CB
:1021100004204FF001097F1E3278582A04D039A2DA
:102120000C920CAA02920BE03BA2F9E75B46009AE4
:10213000FEF710F80C9B9B5C029A521E02921370E1
:1021400050EA0102F2D1029804A9081A00F1200B0A
:10215000600702D524F4803400E001275F4502DDEA
:10216000A7EB0B0000E0002000EB0B0100900398B0
:102170004944401A0390E00306D453462146179A77
:10218000039800F0A9F90544002706E001A852468B
:10219000C05D179990476D1C7F1C4F45F6DBE0032F
:1021A0000CD553462146179A039800F095F905443B
:1021B00004E030205246179990476D1C0099481E44
:1021C00000900029F5DC08E0029802995246007858
:1021D000491C0291179990476D1CBBF10001ABF1AE
:1021E000010BF1DC5BE100F065F90544761C307809
:1021F00000287FF40DAE19B02846BDE8F08F00002E
:1022000009280100303132333435363738396162CC
:102210006364656600000000303132333435363790
:10222000383941424344454600000000600700D46D
:10223000062708F1070020F00700F0E80223804697
:1022400003F0004C5FEA0C0001D097A009E02005E4
:1022500001D596A005E0E00701D095A001E0AFF21E
:102260004C001390307823F0004365280CD006DC36
:10227000452809D046281DD047287FD13BE0662855
:1022800018D067287AD136E00021112F01DB112008
:1022900000E0781CCDE9000104A90CA8FFF7EEFCD2
:1022A000DDE90D010C9A4FF0000B07F101091092C6
:1022B00000914EE04FF000400097CDE9011004A9D5
:1022C0000CA8FFF7DBFCDDE90D020C9B0F994FF02A
:1022D000000B91461093009211B9791C00EB010993
:1022E000B7EB090003D4C0F1FF3B07F10109A9EBEB
:1022F0000700019042E0012F00DA01270021112F91
:1023000001DD112000E03846CDE9000104A90CA848
:10231000FFF7B4FCDDE90D010C9A00914FF0000BC2
:10232000B946109221070FD4009A4A4503DA914624
:1023300001E0A9F10109B9F1010F05DD109AA9F138
:102340000101515C3029F4D0B84202DA10F1040FD7
:1023500003DA0121CDE9011010E0002803DC8344F9
:10236000A9EB000102E0411C494500DD8946A0EBD4
:102370000B00401C01904FF000400290200705D454
:102380000198484502DB4FF0FF30019000208DF8A6
:102390004B0002980DF14B07B0F1004F25D0022001
:1023A0000C902B200D90029800280CDA40420290ED
:1023B0002D200D9007E00A210298FDF7B5FE30317F
:1023C000029007F8011D0C99481E0C900029F2DCC0
:1023D00002980028EFD1791E0D980870307800F02F
:1023E000200040F0450007F8020D11A8C01BC01DD9
:1023F00002901398007800B1012000EB09010198C8
:1024000001EBE071029801440398401A401E0390CA
:10241000E00306D453462146179A039800F05CF86F
:1024200005441398007818B15246179990476D1CCF
:10243000E00323D553462146179A039800F04CF841
:1024400005441BE0BBF1000F07DB0098584504DD95
:102450001098179910F80B0001E017993020524698
:10246000904701980BF1010B401E05F10105019009
:1024700004D12E205246179990476D1CB9F10001E6
:10248000A9F10109DEDC05E017F8010B52461799A6
:1024900090476D1C0299481E02900029F4DC5346B7
:1024A0002146179A03989EE62D0000002B0000009D
:1024B000200000002DE9F041044600251E46174685
:1024C000880404D405E039462020B0476D1C641E02
:1024D000F9D52846BDE8F0812DE9F04104460025F4
:1024E0001E469046C80301D5302700E02027880407
:1024F00004D505E041463846B0476D1C641EF9D549
:102500002846BDE8F08170B504460D46E0B2FFF7FD
:102510002FF8204670BD000008B500244FF4A060DD
:10252000FEF758FDFEF7C8FCFEF7FEFCFEF7C4FF01
:1025300000F075F9FEF7E8FDFEF756FD4448FEF79A
:102540004BFE00BF00F01EF90028FBD07FE04148A1
:102550000078012828D100203E4908703E480168D3
:102560003EA0FFF76BFB3C480088C0F30724002027
:10257000394908602046E11704EB117109118DF803
:102580000010E11704EB11710911A4EB0111C9B29C
:102590008DF801109DF8001035A0FFF74FFB9DF856
:1025A000011036A0FFF74AFB9DF8000006280BD16A
:1025B0009DF80100022807D10021462000F0CFF845
:1025C0000020FEF7A3F840E09DF800000A280BD198
:1025D0009DF80100082807D10021462000F0A0F84E
:1025E0000120FEF793F830E09DF8000002280BD19F
:1025F0009DF80100022807D10021462000F06AF86A
:102600000220FEF783F820E09DF800000C280BD193
:102610009DF80100022807D10021462000F06DF846
:102620000320FEF773F810E09DF8000050B99DF804
:102630000100022806D1002000F085F80420FEF7F2
:1026400065F802E0002000F07EF8FEF7A5FB7EE7CB
:10265000371000203400002030000020BAECCDE21A
:10266000BDD3CAD5C2EB2025302E38580D0A000044
:102670006275665B305D3A25640D0A006275665BC3
:10268000315D3A25640D0A0070B504460D46642C90
:1026900000DD6424002C00DA0024E2B20023194695
:1026A000184600F0C1F82846FEF70CF870BD70B56A
:1026B00004460D46642C00DD6424002C00DA00245E
:1026C000E0B200231A46194600F0AEF82846FDF79E
:1026D000F9FF70BD70B504460D46642C00DD64241E
:1026E000002C00DA0024E2B2E1B20023184600F028
:1026F0009BF82846FDF7E6FF70BD70B504460D4611
:10270000642C00DD6424002C00DA0024E3B2E0B283
:102710000022114600F088F82846FDF7D3FF70BD6F
:1027200070B504460D46642C00DD6424002C00DAEC
:102730000024E3B2E1B20022104600F075F828460A
:10274000FDF7C0FF70BD10B5044600231A461946B8
:10275000184600F069F82046FDF7B4FF10BD70B5CB
:1027600004460D46642C00DD6424002C00DA0024AD
:10277000E2B2E0B20023194600F056F82846FDF711
:10278000A1FF70BD70B5FEF7EBFA00F02FF805461B
:102790000DB9002070BD002000F016F800240AE0FA
:1027A000084A02EB44025178064A12F81400FEF778
:1027B000B9FA601CC4B2332CF2D3002000F004F844
:1027C0000120E7E75C28000810B5044614B1012C8D
:1027D0000AD104E00021EF20FEF7A4FA04E0012171
:1027E000EF20FEF79FFA00BF00BF10BD10B50A240E
:1027F000FEF78FFA0520FDF765FFFEF78AFA052040
:10280000FDF760FF0020FFF7DFFF0020FEF72EFA44
:102810000446202C01D0002010BD0120FCE710B59B
:10282000FEF712FD10BD00002DE9F04104460F46F1
:1028300015461E4621460848FFF7C3F839460648A4
:10284000FFF7C1F829460448FFF7BFF831460248B0
:10285000FFF7BDF8BDE8F08100080040EF00370742
:102860003817390641004200462D470F483C4900C1
:102870004A1E4C2051105E10602780428144820421
:102880008B019006950A960C97059A149C3FA51902
:10289000CC19CD0BCE13CF64D021EF01020F031062
:1028A000040225012739287F29083EFF5E3D6596F1
:1028B000679769CD6A016D2C6E01720173357400E2
:1028C0007701EF0041004200483C4900511383204A
:1028D0008420850086108700880589188A109FF853
:1028E00069966A02EF01011E020F031004024150B3
:1028F000433465CE660B67CE680B69E96A056B5099
:102900006CC36D506EC37405EF0041004200EF00D0
:10291000483C4900511083209FF9EF01011E020F2E
:1029200003100402414043306596660067976801D2
:1029300069CD6A016BB06C046D2C6E017400EF0000
:1029400041FF420164290008000000203C140000FF
:1029500068060008882A00083C14002004040000CF
:102960006C1C0008412D0102030404101406070822
:102970000902040608C0F9A4B0999282F880900177
:1029800012021204120812101220124002FF8001DB
:102990004708097280C0E0F0F0E0C080787DF8FC64
:1029A000FEFF010C69FEFCF8885A0101898069125A
:1029B000016E7A7F0101FF01FF01787AF001017653
:1029C0007AFF01016E8809040C1C3C7CFCFCFC8035
:1029D000190D066C7C3C1C0C04000FFF0103070F53
:1029E0001F3F7F7F3F1F0F07030101FF01770A761B
:1029F0008078B80AC0E0F0F8FCFEFFFFF80101693A
:102A0000B80B0103070F1F3F7FFFFF1F010171027A
:102A1000FF0101FF0189027180BAF801080968FF0E
:102A2000FFFEFCF8F0E0C088BA1F01000A77FFFF44
:102A30007F3F1F0F07030109767801FF01EE0A5758
:102A4000802D091D4BB80AC0E0F0F8FCFEFFFFF82E
:102A5000010110C91E080941FFFFFEFCF8F0E0C0AB
:102A600088B80B0103070F1F3F7FFFFF1F010110F5
:102A7000C91E000A4AFFFF7F3F1F0F070301092BF2
:082A80004B09497801E4000054
:04000005080000ED02
:00000001FF
